:020000040800F2
:100000000050002085210008811F0008871F00087C
:100010008D1F0008931F0008991F000800000000B2
:100020000000000000000000000000009F1F00080A
:10003000AB1F000800000000B71F0008C31F000826
:10004000CD210008CD210008CD210008CD210008D8
:10005000CD210008CD210008CD210008CD210008C8
:10006000CD210008CD210008CD210008CD210008B8
:10007000CD210008CD210008CD210008CD210008A8
:10008000CD210008CD210008CD210008CD21000898
:10009000CD210008CD210008CD210008CD21000888
:1000A000CD210008CD210008CD210008CD21000878
:1000B000D11F0008CD210008CD210008CD21000866
:1000C000CD210008CD210008CD210008CD21000858
:1000D000CD210008CD210008E51F0008CD21000832
:1000E000CD210008CD210008CD210008000000002E
:1000F0000000000000000000000000000000000000
:0C01000000000000000000005FF808F1A3
:1001100010B5054C237833B9044B13B10448AFF341
:1001200000800123237010BDE801002000000000C2
:10013000DC9D000808B5034B1BB103490348AFF32E
:10014000008008BD00000000EC010020DC9D0008DC
:10015000034613F8012B002AFBD1181A0138704707
:1001600081F0004102E000BF83F0004330B54FEA68
:1001700041044FEA430594EA050F08BF90EA020FD5
:100180001FBF54EA000C55EA020C7FEA645C7FEA68
:10019000655C00F0E2804FEA5454D4EB5555B8BF8B
:1001A0006D420CDD2C4480EA020281EA030382EAFC
:1001B000000083EA010180EA020281EA0303362D8E
:1001C00088BF30BD11F0004F4FEA01314FF4801C61
:1001D0004CEA113102D0404261EB410113F0004F73
:1001E0004FEA03334CEA133302D0524263EB43032A
:1001F00094EA050F00F0A780A4F10104D5F1200EC8
:100200000DDB02FA0EFC22FA05F2801841F1000122
:1002100003FA0EF2801843FA05F359410EE0A5F1F6
:1002200020050EF1200E012A03FA0EFC28BF4CF027
:10023000020C43FA05F3C01851EBE37101F00045DD
:1002400007D54FF0000EDCF1000C7EEB00006EEBEA
:100250000101B1F5801F1BD3B1F5001F0CD3490874
:100260005FEA30004FEA3C0C04F101044FEA4452CB
:1002700012F5800F80F09A80BCF1004F08BF5FEA52
:10028000500C50F1000041EB045141EA050130BD32
:100290005FEA4C0C404141EB0101013C28BFB1F544
:1002A000801FE9D291F0000F04BF01460020B1FA8F
:1002B00081F308BF2033A3F10B03B3F120020CDA62
:1002C0000C3208DD02F1140CC2F10C0201FA0CF040
:1002D00021FA02F10CE002F11402D8BFC2F1200CA5
:1002E00001FA02F120FA0CFCDCBF41EA0C0190405B
:1002F000E41AA2BF01EB0451294330BD6FEA0404A4
:100300001F3C1CDA0C340EDC04F11404C4F120028E
:1003100020FA04F001FA02F340EA030021FA04F3A0
:1003200045EA030130BDC4F10C04C4F1200220FAF7
:1003300002F001FA04F340EA0300294630BD21FA35
:1003400004F0294630BD94F0000F83F4801306BFFB
:1003500081F480110134013D4EE77FEA645C18BFEF
:100360007FEA655C29D094EA050F08BF90EA020F86
:1003700005D054EA000C04BF1946104630BD91EA7E
:10038000030F1EBF0021002030BD5FEA545C05D181
:100390004000494128BF41F0004130BD14F58004C0
:1003A0003CBF01F5801130BD01F0004545F0FE4134
:1003B00041F470014FF0000030BD7FEA645C1ABF69
:1003C000194610467FEA655C1CBF0B46024650EAA0
:1003D000013406BF52EA033591EA030F41F40021CC
:1003E00030BD00BF90F0000F04BF0021704730B552
:1003F0004FF4806404F132044FF000054FF0000127
:1004000050E700BF90F0000F04BF0021704730B5E7
:100410004FF4806404F1320410F0004548BF4042BC
:100420004FF000013EE700BF42004FEAE2014FEA11
:1004300031014FEA02701FBF12F07F4393F07F4FEC
:1004400081F06051704732F07F4208BF704793F0EF
:100450007F4F04BF41F40021704730B54FF4607402
:1004600001F0004521F000411CE700BF50EA010205
:1004700008BF704730B54FF000050AE050EA0102AE
:1004800008BF704730B511F0004502D5404261EB1E
:1004900041014FF4806404F132045FEA915C3FF45F
:1004A000D8AE4FF003025FEADC0C18BF03325FEAFC
:1004B000DC0C18BF033202EBDC02C2F1200300FAAD
:1004C00003FC20FA02F001FA03FE40EA0E0021FAD2
:1004D00002F11444BDE600BF70B54FF0FF0C4CF4C0
:1004E000E06C1CEA11541DBF1CEA135594EA0C0F72
:1004F00095EA0C0F00F0DEF82C4481EA030621EAAD
:100500004C5123EA4C5350EA013518BF52EA0335E7
:1005100041F4801143F4801338D0A0FB02CE4FF099
:100520000005E1FB02E506F00042E0FB03E54FF0C9
:100530000006E1FB03569CF0000F18BF4EF0010EC1
:10054000A4F1FF04B6F5007F64F5407404D25FEABD
:100550004E0E6D4146EB060642EAC62141EA555170
:100560004FEAC52040EA5E504FEACE2EB4F1FD0CB2
:1005700088BFBCF5E06F1ED8BEF1004F08BF5FEA30
:10058000500E50F1000041EB045170BD06F00046E2
:1005900046EA010140EA020081EA0301B4EB5C048F
:1005A000C2BFD4EB0C0541EA045170BD41F4801187
:1005B0004FF0000E013C00F3AB8014F1360FDEBFAC
:1005C000002001F0004170BDC4F10004203C35DA88
:1005D0000C341BDC04F11404C4F1200500FA05F30B
:1005E00020FA04F001FA05F240EA020001F00042AC
:1005F00021F0004110EBD37021FA04F642EB060122
:100600005EEA430E08BF20EAD37070BDC4F10C044B
:10061000C4F1200500FA04F320FA05F001FA04F20F
:1006200040EA020001F0004110EBD37041F10001FB
:100630005EEA430E08BF20EAD37070BDC4F1200506
:1006400000FA05F24EEA020E20FA04F301FA05F26E
:1006500043EA020321FA04F001F0004121FA04F216
:1006600020EA020000EBD3705EEA430E08BF20EAE6
:10067000D37070BD94F0000F0FD101F00046400020
:1006800041EB010111F4801F08BF013CF7D041EAA2
:10069000060195F0000F18BF704703F000465200A6
:1006A00043EB030313F4801F08BF013DF7D043EA77
:1006B0000603704794EA0C0F0CEA135518BF95EA2D
:1006C0000C0F0CD050EA410618BF52EA4306D1D1B4
:1006D00081EA030101F000414FF0000070BD50EAD3
:1006E000410606BF1046194652EA430619D094EA5D
:1006F0000C0F02D150EA013613D195EA0C0F05D147
:1007000052EA03361CBF104619460AD181EA03019A
:1007100001F0004141F0FE4141F470014FF0000052
:1007200070BD41F0FE4141F4780170BD70B54FF0ED
:10073000FF0C4CF4E06C1CEA11541DBF1CEA13556D
:1007400094EA0C0F95EA0C0F00F0A7F8A4EB05044F
:1007500081EA030E52EA03354FEA013100F0888046
:100760004FEA03334FF0805545EA131343EA12630F
:100770004FEA022245EA111545EA10654FEA0026C4
:100780000EF000419D4208BF964244F1FD0404F57D
:10079000407402D25B084FEA3202B61A65EB0305D9
:1007A0005B084FEA32024FF480104FF4002CB6EB96
:1007B000020E75EB030E22BFB61A754640EA0C0016
:1007C0005B084FEA3202B6EB020E75EB030E22BF56
:1007D000B61A754640EA5C005B084FEA3202B6EB97
:1007E000020E75EB030E22BFB61A754640EA9C0056
:1007F0005B084FEA3202B6EB020E75EB030E22BF26
:10080000B61A754640EADC0055EA060E18D04FEAE3
:10081000051545EA16754FEA06164FEAC30343EA83
:1008200052734FEAC2025FEA1C1CC0D111F4801F50
:100830000BD141EA00014FF000004FF0004CB6E749
:1008400011F4801F04BF01430020B4F1FD0C88BFE8
:10085000BCF5E06F3FF6AFAEB5EB030C04BFB6EBF3
:10086000020C5FEA500C50F1000041EB045170BDE6
:100870000EF0004E4EEA113114EB5C04C2BFD4EB13
:100880000C0541EA045170BD41F480114FF0000E97
:10089000013C90E645EA060E8DE60CEA135594EA13
:1008A0000C0F08BF95EA0C0F3FF43BAF94EA0C0F16
:1008B0000AD150EA01347FF434AF95EA0C0F7FF48B
:1008C00025AF104619462CE795EA0C0F06D152EADF
:1008D00003353FF4FDAE1046194622E750EA4106C3
:1008E00018BF52EA43067FF4C5AE50EA41047FF4D4
:1008F0000DAF52EA43057FF4EBAE12E74FF0FF3C39
:1009000006E000BF4FF0010C02E000BF4FF0010C09
:100910004DF804CD4FEA410C7FEA6C5C4FEA430C82
:1009200018BF7FEA6C5C1BD001B050EA410C0CBFD1
:1009300052EA430C91EA030F02BF90EA020F002033
:10094000704710F1000F91EA030F58BF994208BF9A
:1009500090422CBFD8176FEAE37040F00100704757
:100960004FEA410C7FEA6C5C02D150EA013C07D1AE
:100970004FEA430C7FEA6C5CD6D152EA033CD3D0F9
:100980005DF8040B704700BF8446104662468C46F3
:100990001946634600E000BF01B5FFF7B7FF002826
:1009A00048BF10F1000F01BD4DF808EDFFF7F4FF4F
:1009B0000CBF012000205DF808FB00BF4DF808EDDA
:1009C000FFF7EAFF34BF012000205DF808FB00BFFD
:1009D0004DF808EDFFF7E0FF94BF012000205DF81F
:1009E00008FB00BF4DF808EDFFF7CEFF94BF0120D4
:1009F00000205DF808FB00BF4DF808EDFFF7C4FFCD
:100A000034BF012000205DF808FB00BF4FEA410C15
:100A10007FEA6C5C02D150EA013C0AD14FEA430CF8
:100A20007FEA6C5C02D152EA033C02D14FF0000035
:100A300070474FF0010070474FEA410212F5001273
:100A400015D211D56FF47873B3EB625212D94FEA15
:100A5000C12343F0004343EA505311F0004F23FAFF
:100A600002F018BF404270474FF00000704750EA54
:100A7000013005D111F0004008BF6FF00040704711
:100A80004FF00000704700BF4A0011D212F500126B
:100A900011D20DD56FF47873B3EB62520ED44FEAD6
:100AA000C12343F0004343EA505323FA02F0704756
:100AB0004FF00000704750EA013002D14FF0FF3094
:100AC00070474FF0000070474FEA4102B2F1E04337
:100AD00024BFB3F5001CDCF1FE5C0DD901F0004C25
:100AE0004FEAC0024CEA5070B2F1004F40EB830075
:100AF00008BF20F00100704711F0804F21D113F1A1
:100B00003872BCBF01F00040704741F480114FEAD9
:100B10005252C2F11802C2F1200C10FA0CF320FA62
:100B200002F018BF40F001004FEAC1234FEAD3237F
:100B300003FA0CFC40EA0C0023FA02F34FEA4303E9
:100B4000CCE77FEA625307D150EA01331EBF4FF072
:100B5000FE4040F44000704701F0004040F0FE408D
:100B600040F40000704700BF80F0004002E000BF8A
:100B700081F0004142001FBF5FEA410392EA030F88
:100B80007FEA226C7FEA236C6AD04FEA1262D2EBD2
:100B90001363C1BFD218414048404140B8BF5B42D7
:100BA000192B88BF704710F0004F40F4000020F070
:100BB0007F4018BF404211F0004F41F4000121F086
:100BC0007F4118BF494292EA030F3FD0A2F10102D0
:100BD00041FA03FC10EB0C00C3F1200301FA03F10E
:100BE00000F0004302D5494260EB4000B0F5000F31
:100BF00013D3B0F1807F06D340084FEA310102F1F0
:100C00000102FE2A51D2B1F1004F40EBC25008BFA1
:100C100020F0010040EA03007047490040EB00006B
:100C2000013A28BFB0F5000FEDD2B0FA80FCACF16C
:100C3000080CB2EB0C0200FA0CF0AABF00EBC25099
:100C400052421843BCBFD0401843704792F0000F87
:100C500081F4000106BF80F400000132013BB5E7DA
:100C60004FEA41037FEA226C18BF7FEA236C21D050
:100C700092EA030F04D092F0000F08BF08467047B5
:100C800090EA010F1CBF0020704712F07F4F04D183
:100C9000400028BF40F00040704712F100723CBF96
:100CA00000F50000704700F0004343F0FE4040F4C0
:100CB000000070477FEA226216BF08467FEA23637E
:100CC0000146420206BF5FEA412390EA010F40F469
:100CD000800070474FF0000304E000BF10F00043B5
:100CE00048BF40425FEA000C08BF704743F096439C
:100CF00001464FF000001CE050EA010208BF7047B7
:100D00004FF000030AE000BF50EA010208BF70473D
:100D100011F0004302D5404261EB41015FEA010C52
:100D200002BF84460146002043F0B64308BFA3F14A
:100D30008053A3F50003BCFA8CF2083AA3EBC2532C
:100D400010DB01FA02FC634400FA02FCC2F120024B
:100D5000BCF1004F20FA02F243EB020008BF20F082
:100D60000100704702F1200201FA02FCC2F12002E8
:100D700050EA4C0021FA02F243EB020008BF20EADD
:100D8000DC7070474FF0FF0C1CEAD0521EBF1CEA0B
:100D9000D15392EA0C0F93EA0C0F6FD01A4480EAF9
:100DA000010C400218BF5FEA41211ED04FF00063E2
:100DB00043EA501043EA5111A0FB01310CF000400E
:100DC000B1F5000F3EBF490041EAD3715B0040EA34
:100DD000010062F17F02FD2A1DD8B3F1004F40EB04
:100DE000C25008BF20F00100704790F0000F0CF0D7
:100DF000004C08BF49024CEA502040EA51207F3A9B
:100E0000C2BFD2F1FF0340EAC250704740F4000075
:100E10004FF00003013A5DDC12F1190FDCBF00F066
:100E200000407047C2F10002410021FA02F1C2F114
:100E3000200200FA02FC5FEA310040F1000053EAB0
:100E40004C0308BF20EADC70704792F0000F00F0FE
:100E5000004C02BF400010F4000F013AF9D040EA04
:100E60000C0093F0000F01F0004C02BF490011F498
:100E7000000F013BF9D041EA0C018FE70CEAD15396
:100E800092EA0C0F18BF93EA0C0F0AD030F0004C16
:100E900018BF31F0004CD8D180EA010000F00040CA
:100EA000704790F0000F17BF90F0004F084691F088
:100EB000000F91F0004F14D092EA0C0F01D14202C2
:100EC0000FD193EA0C0F03D14B0218BF084608D18B
:100ED00080EA010000F0004040F0FE4040F40000D5
:100EE000704740F0FE4040F4400070474FF0FF0C68
:100EF0001CEAD0521EBF1CEAD15392EA0C0F93EAAF
:100F00000C0F69D0A2EB030280EA010C49024FEA00
:100F1000402037D04FF0805343EA111143EA1013B9
:100F20000CF000408B4238BF5B0042F17D024FF471
:100F3000000C8B4224BF5B1A40EA0C00B3EB510F4C
:100F400024BFA3EB510340EA5C00B3EB910F24BF35
:100F5000A3EB910340EA9C00B3EBD10F24BFA3EBBA
:100F6000D10340EADC001B0118BF5FEA1C1CE0D182
:100F7000FD2A3FF650AF8B4240EBC25008BF20F035
:100F8000010070470CF0004C4CEA50207F32C2BF89
:100F9000D2F1FF0340EAC250704740F400004FF026
:100FA0000003013A37E792F0000F00F0004C02BF57
:100FB000400010F4000F013AF9D040EA0C0093F021
:100FC000000F01F0004C02BF490011F4000F013B7B
:100FD000F9D041EA0C0195E70CEAD15392EA0C0FE3
:100FE00008D142027FF47DAF93EA0C0F7FF470AF1B
:100FF000084676E793EA0C0F04D14B023FF44CAF5E
:1010000008466EE730F0004C18BF31F0004CCAD1F2
:1010100030F000427FF45CAF31F000437FF43CAF2E
:101020005FE700BF4FF0FF3C06E000BF4FF0010C50
:1010300002E000BF4FF0010C4DF804CD4FEA400232
:101040004FEA41037FEA226C18BF7FEA236C11D07C
:1010500001B052EA530C18BF90EA010F58BFB2EB2F
:10106000030088BFC81738BF6FEAE17018BF40F0AF
:10107000010070477FEA226C02D15FEA402C05D163
:101080007FEA236CE4D15FEA412CE1D05DF8040BE8
:10109000704700BF844608466146FFE70FB5FFF77B
:1010A000C9FF002848BF10F1000F0FBD4DF808ED33
:1010B000FFF7F4FF0CBF012000205DF808FB00BF24
:1010C0004DF808EDFFF7EAFF34BF012000205DF87E
:1010D00008FB00BF4DF808EDFFF7E0FF94BF0120CB
:1010E00000205DF808FB00BF4DF808EDFFF7D2FFC8
:1010F00094BF012000205DF808FB00BF4DF808ED0B
:10110000FFF7C8FF34BF012000205DF808FB00BFD7
:101110004FEA4002B2F1FE4F0FD34FF09E03B3EB04
:1011200012620DD94FEA002343F0004310F0004F44
:1011300023FA02F018BF404270474FF0000070479A
:1011400012F1610F01D1420205D110F0004008BF39
:101150006FF0004070474FF00000704738B50C4604
:1011600005462146284600220023FFF727FC28B920
:1011700028462146BDE8384000F00AB8284604F168
:10118000004100F005F8404261EB410138BD00BF6D
:10119000D0B500220B4B06460F46FFF79DF9FFF72F
:1011A00073FC0446FFF71EF90022074BFFF794F982
:1011B00002460B4630463946FEF7D6FFFFF764FC81
:1011C0002146D0BD0000F03D0000F04180B400AFEA
:1011D0000A4B1B685B6A1BB21A46094B1A60094B23
:1011E0001A68074B1B681344064A1360034B1B68BD
:1011F00000225A6200BFBD4680BC7047B402002086
:10120000FC0200207C03002080B483B000AF0346C2
:101210003960FB800F4B4FF07E521A600E4B1B88DB
:1012200040F6B832934210D10C4B1A68FB8892FBFF
:10123000F3F39AB23B681A80074B00221A80084BDE
:1012400001221A70054B00221A6000BF0C37BD4600
:1012500080BC7047200200200C0200207C0300208C
:101260000A02002080B582B000AF78607B681A68FF
:101270000C4B1B689A4210D1FFF7A8FF0A4B0122C2
:101280001A700A4B1B8840F6B732934205D8074BB9
:101290001B8801339AB2054B1A8000BF0837BD4640
:1012A00080BD00BF34030020080200200C02002093
:1012B000B0B586B000AFF860B9607A603B60B968DD
:1012C000F868FFF755FC03467B617B681C6923497E
:1012D0007869FFF757FD034619462046FFF74AFC99
:1012E00003461A467B681A617B681B687969184651
:1012F000FFF748FD03461C467B685A687B681B69FC
:1013000019461046FFF73EFD034619462046FFF7F3
:1013100031FC03461D467B689C687B68DB68194688
:101320007869FFF725FC034619462046FFF72AFD9A
:1013300003460A491846FFF7D9FD034619462846D1
:10134000FFF718FC03461A463B681A607B687A6907
:10135000DA6000BF1837BD46B0BD00BF0AD7A33C56
:1013600080B584B000AF78604FF07E517868FFF7A9
:10137000BBFE0346002B03D04FF07E537B6008E09A
:101380001A497868FFF7A6FE0346002B01D0174BD9
:101390007B6017497868FFF7F5FC03461846FFF7AE
:1013A000B7FE0346FB81B7F90E30002B09DB114B6A
:1013B0001B6800225A630F4B1B68B7F90E209A6313
:1013C00010E0B7F90E30002B0CDAFB895B429BB2C0
:1013D000FB81084B1B6800229A63064B1B68B7F918
:1013E0000E205A6300BF1037BD4680BD000080BF8D
:1013F00000006144400200202DE9B04F88B008AFE2
:10140000684B1B78302B2FD1674B0093674B684A92
:101410006849644804F038FB644B1B78012B06D103
:10142000654B00221A60654B4FF000021A605F4B5B
:101430001B78022B18D114220021614803F086FC8E
:101440006048FEF785FE03461A4600215E4803F019
:101450007DFC5E4B4FF000021A60574B00221A6071
:10146000564B4FF000021A604E4B1B78312B3ED189
:10147000564B0293564B0193564B0093504B4C4A9C
:101480005549484804F000FB4D4B1B681846FEF7D1
:10149000CBFF04460D464A4B5B681846FEF7C4FF77
:1014A00080468946464B9B681846FEF7BDFF82463C
:1014B0008B46464B1B681846FEF7B6FF02460B46A6
:1014C000CDE90623CDE904ABCDE90289CDE900459C
:1014D000022242493B4804F0B7FA3A48FEF738FE88
:1014E00003469AB21E2337493D4802F01AFF2D4B9E
:1014F0001B78322B1BD12C4B01933A4B00933A4B68
:101500002B4A3A49274804F0BFFA032238492D48AC
:1015100004F09AFA2B48FEF71BFE03469AB21E23EC
:1015200028492F4802F0FDFE234B00221A601D4B74
:101530001B78332B31D11C4B00932E4B1C4A1D4979
:10154000184804F0A1FA2B4B1B78012B10D1042270
:1015500027491C4804F078FA1A48FEF7F9FD0346BB
:101560009AB21E2317491E4802F0DBFE00F024FB4E
:10157000204B1B78042B10D105221D49114804F083
:1015800063FA1048FEF7E4FD03469AB21E230D49A4
:10159000134802F0C6FE00F063FB00BFBD46BDE885
:1015A000B08F00BF000300200402002000000020D4
:1015B0003C020020F89D00087C030020200200204F
:1015C000240200208C020020280300203802002082
:1015D0002C02002028020020049E0008149E00080F
:1015E0008003002004000020020000202C9E000840
:1015F000389E00083003002080B582B000AF7860CC
:101600007B681A68124B1B689A421DD1114B1B78DC
:101610000A2B0BD0104B1B785A1CD1B20E4A1170FA
:101620001A460C4B19780D4B995408E0094B1B785E
:101630000A2B04D1084B00221A70FFF7DDFE0122AD
:101640000449034802F0FFFE00BF0837BD4680BDD5
:1016500080030020880200200902002000030020EF
:10166000B0B584B004AF00F0B3FD00F0EDF800F0C9
:1016700065FA00F087F900F0D3F900F035FA00F0D0
:1016800029F95E4801F0CAFD04215D4801F0ACFF74
:1016900000215C4801F064FE04215A4801F060FE1C
:1016A00001225949594802F0CEFE01221021584822
:1016B00001F032F901222021554801F02DF9554B56
:1016C0001B681846FFF74CFE534B1B78012B40F06C
:1016D0009080514B00221A70504B1B68022B5FD038
:1016E000022BE2D8002B02D0012B05D084E0494B1D
:1016F0004FF000021A607FE0494B1C68494B1B68A1
:101700001846FFF7EBFA0546474B1B881846FFF7CC
:10171000E5FA034619462846FFF7E8FB0346434926
:101720001846FFF72FFB034619463A4B404A20461E
:10173000FFF7BEFD3B4B1B681846FFF7CFFA044688
:10174000394B1B881846FFF7C9FA0346194620464D
:10175000FFF7CCFB034635491846FFF713FB03465A
:101760001846FEF761FE04460D462A4B1B681846D4
:10177000FEF75AFE02460B46CDE90223CDE90045AD
:1017800000222C492C4804F05FF92B48FEF7E0FCBE
:1017900003469AB21E2328491C4802F0C2FD2BE0E2
:1017A000214B1B88002B26D1244B1B881E49184631
:1017B000FFF72AFD224B1B78002B1CD01A4B1B88ED
:1017C000012220491C4804F03FF91B48FEF7C0FCE9
:1017D00003469AB21E2318490C4802F0A2FD184B8A
:1017E00000221A700D4B00221A600E4B00221A6064
:1017F00001E000BF59E700BF57E700BF34030020F6
:10180000B402002040020020880200208003002053
:1018100000080140200200200802002004020020ED
:10182000380200207C030020040000200000B443A4
:10183000240200203C9E00088C02002002000020B0
:101840000A0200204C9E000880B590B000AF07F15E
:10185000180328220021184603F078FA3B1D0022C5
:101860001A605A609A60DA601A610123BB614FF412
:101870008033FB6100233B620123BB6202237B6355
:101880004FF48033BB634FF4E013FB6307F118039D
:10189000184601F059F80346002B01D000F032FA47
:1018A0000F237B600223BB600023FB604FF4806347
:1018B0003B6100237B613B1D0221184601F0C4FA05
:1018C0000346002B01D000F01DFA00BF4037BD4693
:1018D00080BD000080B58CB000AF07F10C0324225E
:1018E0000021184603F032FA3B1D00221A605A60AC
:1018F000224B234A1A60214B00225A601F4B0022C0
:101900009A601E4B4FF6FF72DA601C4B00221A6180
:101910001A4B00225A61194B00229A610323FB6083
:1019200000233B6101237B610023BB610023FB613A
:1019300000233B6201237B620023BB620023FB6226
:1019400007F10C0319460D4801F0ACFD0346002BCE
:1019500001D000F0D7F900237B600023BB603B1D62
:101960001946064802F020FC0346002B01D000F087
:10197000C9F900BF3037BD4680BD00BFB4020020AA
:10198000002C014080B586B000AF07F108030022AB
:101990001A605A609A60DA603B4600221A605A6008
:1019A0001E4B4FF080421A601C4B40F21F125A60CF
:1019B0001A4B00229A60194B41F28732DA60174BBA
:1019C00000221A61154B80229A61144801F0D6FB5F
:1019D0000346002B01D000F095F94FF48053BB6013
:1019E00007F1080319460D4802F052F80346002B90
:1019F00001D000F087F900233B6000237B603B4669
:101A00001946064802F0D0FB0346002B01D000F037
:101A100079F900BF1837BD4680BD00BF34030020F0
:101A200080B58AB000AF07F1200300221A605A6027
:101A30003B1D00221A605A609A60DA601A615A618E
:101A40009A61274B274A1A60254B02225A60244B81
:101A500000229A60224B40F2E732DA60204B0022EB
:101A60001A611F4B00229A611D4801F029FC0346B0
:101A7000002B01D000F046F900233B6200237B627B
:101A800007F120031946164802F08EFB0346002B8F
:101A900001D000F037F960237B600023BB60002396
:101AA000FB6000237B613B1D002219460C4801F0BE
:101AB00031FF0346002B01D000F024F93B1D042226
:101AC0001946074801F026FF0346002B01D000F01D
:101AD00019F9034800F0D0F900BF2837BD4680BD92
:101AE000400200200004004080B500AF114B124AB4
:101AF0001A60104B4FF4E1325A600E4B00229A608C
:101B00000C4B0022DA600B4B00221A61094B0C22AD
:101B10005A61084B00229A61064B0022DA6105489F
:101B200002F0B2FB0346002B01D000F0EBF800BF3F
:101B300080BD00BF800300200044004080B586B017
:101B400000AF07F1080300221A605A609A60DA6059
:101B5000174B9B69164A43F020039361144B9B6912
:101B600003F020037B607B68114B9B69104A43F0B4
:101B7000040393610E4B9B6903F004033B603B68D5
:101B8000002230210B4800F0C7FE3023BB60012348
:101B9000FB6000233B6102237B6107F108031946C8
:101BA000044800F035FD00BF1837BD4680BD00BFBA
:101BB000001002400008014080B58CB000AF07F172
:101BC0000C0324220021184603F0C0F83B1D00221C
:101BD0001A605A60204B214A1A601F4B03225A6038
:101BE0001D4B00229A601C4B4FF6FF72DA601A4BB5
:101BF00000221A61184B00229A610323FB60002324
:101C00003B6101237B610023BB610023FB61002357
:101C10003B6201237B620023BB620023FB6207F16E
:101C20000C0319460C4801F03DFC0346002B01D083
:101C300000F068F800237B600023BB603B1D194661
:101C4000054802F0B1FA0346002B01D000F05AF823
:101C500000BF3037BD4680BDB4020020002C0140DB
:101C600080B58CB000AF07F10C0324220021184688
:101C700003F06CF83B1D00221A605A601F4B204A8B
:101C80001A601E4B00225A601C4B00229A601B4BAC
:101C90004FF6FF72DA60194B00221A610323FB60D2
:101CA00000233B6101237B610023BB610023FB61B7
:101CB00000233B6201237B620023BB620023FB62A3
:101CC00007F10C0319460D4801F0ECFB0346002B0D
:101CD00001D000F017F800237B600023BB603B1DA0
:101CE0001946064802F060FA0346002B01D000F0C6
:101CF00009F800BF3037BD4680BD00BFB4020020E8
:101D0000002C014080B400AF72B600BFFEE70000B7
:101D100080B485B000AF154B9B69144A43F00103B2
:101D20009361124B9B6903F00103BB60BB680F4BCF
:101D3000DB690E4A43F08053D3610C4BDB6903F03F
:101D400080537B607B680A4B5B68FB60FB6823F019
:101D5000E063FB60FB6843F00073FB60044AFB68D0
:101D6000536000BF1437BD4680BC7047001002406E
:101D70000000014080B588B000AF786007F1100323
:101D800000221A605A609A60DA607B681B68164A03
:101D9000934224D1154B9B69144A43F40063936129
:101DA000124B9B6903F40063FB60FB680F4B9B695C
:101DB0000E4A43F0040393610C4B9B6903F0040348
:101DC000BB60BB684FF440733B6100237B61002321
:101DD000BB6107F110031946054800F019FC00BF6C
:101DE0002037BD4680BD00BF002C014000100240DE
:101DF0000008014080B584B000AF78607B681B6844
:101E0000B3F1804F13D10C4BDB690B4A43F0010354
:101E1000D361094BDB6903F00103FB60FB6800221F
:101E200001211C2000F00DFB1C2000F026FB00BF50
:101E30001037BD4680BD00BF0010024080B485B0A1
:101E400000AF78607B681B68094A93420BD1094B4D
:101E5000DB69084A43F00203D361064BDB6903F0F8
:101E60000203FB60FB6800BF1437BD4680BC7047AF
:101E7000000400400010024080B588B000AF7860D8
:101E800007F1100300221A605A609A60DA607B68DA
:101E90001B680F4A934217D10E4B9B690D4A43F0C2
:101EA000040393610B4B9B6903F00403FB60FB6825
:101EB000C0233B6102237B610223FB6107F1100316
:101EC0001946054800F0A4FB00BF2037BD4680BD81
:101ED00000040040001002400008014080B588B0B6
:101EE00000AF786007F1100300221A605A609A6010
:101EF000DA607B681B681F4A934237D11E4BDB694F
:101F00001D4A43F40033D3611B4BDB6903F40033F8
:101F1000FB60FB68184B9B69174A43F0040393610D
:101F2000154B9B6903F00403BB60BB6804233B6152
:101F300002237B610323FB6107F1100319460F485D
:101F400000F066FB08233B6100237B610023BB613B
:101F500007F110031946094800F05AFB002201213D
:101F6000262000F06EFA262000F087FA00BF203706
:101F7000BD4680BD00440040001002400008014002
:101F800080B400AFFEE780B400AFFEE780B400AFDE
:101F9000FEE780B400AFFEE780B400AFFEE780B498
:101FA00000AF00BFBD4680BC704780B400AF00BF2B
:101FB000BD4680BC704780B400AF00BFBD4680BC4A
:101FC000704780B500AF00F049F900BF80BD000048
:101FD00080B500AF024801F095FB00BF80BD00BF97
:101FE0003403002080B500AF024802F05DFA00BF64
:101FF00080BD00BF8003002080B400AF01231846DD
:10200000BD4680BC704780B582B000AF7860396053
:1020100002F072FE034616221A604FF0FF33184694
:102020000837BD4680BD80B582B000AF78604FF004
:10203000FF317868FFF7E7FFFEE780B586B000AFB5
:10204000F860B9607A6000237B610AE0AFF300803A
:102050000146BB685A1CBA60CAB21A707B69013368
:102060007B617A697B689A42F0DB7B681846183797
:10207000BD4680BD80B586B000AFF860B9607A60BB
:1020800000237B6109E0BB685A1CBA601B781846C4
:10209000AFF300807B6901337B617A697B689A4288
:1020A000F1DB7B6818461837BD4680BD80B483B02D
:1020B00000AF78604FF0FF3318460C37BD4680BC48
:1020C000704780B483B000AF786039603B684FF4EC
:1020D00000525A60002318460C37BD4680BC70473A
:1020E00080B483B000AF7860012318460C37BD463A
:1020F00080BC704780B485B000AFF860B9607A608A
:10210000002318461437BD4680BC704780B586B0A2
:1021100000AF7860144A154BD31A7B617B693B6131
:10212000134B1B68002B02D1114B124A1A60104B43
:102130001A687B6813443A699A4207D202F0DCFDC0
:1021400003460C221A604FF0FF3309E0084B1B686E
:10215000FB60074B1A687B681344054A1360FB68F1
:1021600018461837BD4680BD00500020000400000E
:1021700010020020D803002080B400AF00BFBD468D
:1021800080BC70470C480D490D4A002302E0D4582A
:10219000C4500433C4188C42F9D30A4A0A4C0023B1
:1021A00001E013600432A242FBD3FFF7E5FF02F027
:1021B000A9FDFFF755FA704700000020E801002054
:1021C0005CA30008E8010020D8030020FEE700001F
:1021D00080B500AF084B1B68074A43F0100313603B
:1021E000032000F023F90F2000F008F8FFF790FD1E
:1021F0000023184680BD00BF0020024080B582B099
:1022000000AF7860124B1A68124B1B7819464FF4D6
:102210007A73B3FBF1F3B2FBF3F3184600F03BF92A
:102220000346002B01D001230EE07B680F2B0AD858
:10223000002279684FF0FF3000F003F9064A7B680E
:102240001360002300E0012318460837BD4680BD17
:1022500008000020100000200C00002080B400AF17
:10226000054B1B781A46054B1B681344034A136041
:1022700000BFBD4680BC704710000020C403002092
:1022800080B400AF024B1B681846BD4680BC704747
:10229000C403002080B485B000AF78607B6803F091
:1022A0000703FB600C4BDB68BB60BA684FF6FF03AB
:1022B0001340BB60FB681A02BB68134343F0BF6363
:1022C00043F40033BB60044ABB68D36000BF1437DB
:1022D000BD4680BC704700BF00ED00E080B400AF99
:1022E000044BDB681B0A03F007031846BD4680BC9D
:1022F000704700BF00ED00E080B483B000AF03463C
:10230000FB7197F90730002B0BDBFB7903F01F0201
:10231000064997F907305B09012000FA02F241F8FB
:10232000232000BF0C37BD4680BC704700E100E0B1
:1023300080B483B000AF03463960FB7197F9073072
:10234000002B0ADB3B68DAB20C4997F9073012011F
:10235000D2B20B4483F800230AE03B68DAB20849A2
:10236000FB7903F00F03043B1201D2B20B441A763F
:1023700000BF0C37BD4680BC704700BF00E100E0E5
:1023800000ED00E080B489B000AFF860B9607A6019
:10239000FB6803F00703FB61FB69C3F10703042B30
:1023A00028BF0423BB61FB690433062B02D9FB69F8
:1023B000033B00E000237B614FF0FF32BB6902FA70
:1023C00003F3DA43BB681A407B699A404FF0FF3150
:1023D0007B6901FA03F3D9437B680B40134318462A
:1023E0002437BD4680BC704780B582B000AF7860AE
:1023F0007B68013BB3F1807F01D301230FE00A4AE0
:102400007B68013B53600F214FF0FF30FFF790FFD7
:10241000054B00229A60044B07221A6000231846DD
:102420000837BD4680BD00BF10E000E080B582B037
:1024300000AF78607868FFF72DFF00BF0837BD4612
:1024400080BD80B586B000AF0346B9607A60FB738B
:1024500000237B61FFF742FF78617A68B968786989
:10246000FFF790FF024697F90F3011461846FFF725
:102470005FFF00BF1837BD4680BD80B582B000AF9A
:102480000346FB7197F907301846FFF735FF00BF89
:102490000837BD4680BD80B582B000AF78607868EF
:1024A000FFF7A2FF034618460837BD4680BD80B43B
:1024B00085B000AF78600023FB737B6893F8213010
:1024C000022B08D07B6804229A637B68002283F881
:1024D0002020012320E07B681B681A687B681B684A
:1024E00022F00E021A607B681B681A687B681B6802
:1024F00022F001021A607B681A6C7B68DB6B012199
:1025000001FA02F25A607B68012283F821207B687D
:10251000002283F82020FB7B18461437BD4680BC80
:102520007047000080B584B000AF78600023FB7373
:102530007B6893F82130022B05D07B6804229A63D4
:102540000123FB7351E07B681B681A687B681B687A
:1025500022F00E021A607B681B681A687B681B6891
:1025600022F001021A607B681B68224A934229D03C
:102570007B681B68204A934222D07B681B681F4AF5
:1025800093421AD07B681B681D4A934212D07B6825
:102590001B681C4A93420AD07B681B681A4A934204
:1025A00002D14FF480130EE04FF080730BE04FF434
:1025B000803308E04FF4805305E04FF4807302E06D
:1025C000102300E00123114A53607B68012283F845
:1025D00021207B68002283F820207B685B6B002B26
:1025E00003D07B685B6B78689847FB7B1846103795
:1025F000BD4680BD080002401C0002403000024081
:1026000044000240580002406C00024000000240BA
:1026100080B48BB000AF7860396000237B62002308
:102620003B6269E101227B6A02FA03F3FB613B68CA
:102630001B68FA691340BB61BA69FB699A4240F0B2
:1026400058813B685B689A4A93425ED0984A9342AD
:1026500075D8984A934258D0964A93426FD8964A72
:10266000934252D0944A934269D8944A93424CD0B0
:10267000924A934263D8924A934246D0904A9342F8
:102680005DD8122B2AD8122B59D801A252F823F068
:102690000B270008E5260008F72600083927000860
:1026A0003F2700083F2700083F2700083F27000872
:1026B0003F2700083F2700083F2700083F27000862
:1026C0003F2700083F2700083F2700083F27000852
:1026D0003F270008ED26000801270008794A9342A9
:1026E00013D02CE03B68DB683B6229E03B68DB6889
:1026F00004333B6224E03B68DB6808333B621FE045
:102700003B68DB680C333B621AE03B689B68002B3C
:1027100002D104233B6213E03B689B68012B05D187
:1027200008233B627B68FA691A6109E008233B626F
:102730007B68FA695A6103E000233B6200E000BF56
:10274000BB69FF2B01D87B6801E07B6804337B61A8
:10275000BB69FF2B02D87B6A9B0002E07B6A083BC7
:102760009B003B617B691A680F213B6901FA03F307
:10277000DB431A40396A3B6901FA03F31A437B6968
:102780001A603B685B6803F08053002B00F0B18057
:102790004D4B9B694C4A43F0010393614A4B9B6943
:1027A00003F00103BB60BB68484A7B6A9B080233A5
:1027B00052F82330FB607B6A03F003039B000F2277
:1027C00002FA03F3DB43FA681340FB607B68404A7C
:1027D000934213D07B683F4A93420DD07B683E4AB8
:1027E000934207D07B683D4A934201D1032306E020
:1027F000042304E0022302E0012300E000237A6ABC
:1028000002F0030292009340FA681343FB602F49E1
:102810007B6A9B080233FA6841F823203B685B68B7
:1028200003F48033002B06D02D4B1A682C49BB696A
:1028300013430B6006E02A4B1A68BB69DB43284947
:1028400013400B603B685B6803F40033002B06D039
:10285000234B5A682249BB6913434B6006E0204B67
:102860005A68BB69DB431E4913404B603B685B6899
:1028700003F48013002B06D0194B9A681849BB69E2
:1028800013438B6006E0164B9A68BB69DB4314491F
:1028900013408B603B685B6803F40013002B21D06E
:1028A0000F4BDA680E49BB691343CB6021E000BFD0
:1028B0000000321000003110000022100000211032
:1028C0000000121000001110001002400000014032
:1028D00000080140000C01400010014000140140BC
:1028E000000401400B4BDA68BB69DB430949134024
:1028F000CB607B6A01337B623B681A687B6A22FA91
:1029000003F3002B7FF48EAE00BF00BF2C37BD4613
:1029100080BC70470004014080B483B000AF786091
:102920000B467B8013467B707B78002B03D07A8824
:102930007B681A6103E07B881A047B681A6100BF18
:102940000C37BD4680BC704780B586B000AF78605C
:102950007B68002B01D101236CE27B681B6803F0CC
:102960000103002B00F08780924B5B6803F00C039F
:10297000042B0CD08F4B5B6803F00C03082B12D197
:102980008C4B5B6803F48033B3F5803F0BD1894BEC
:102990001B6803F40033002B6CD07B685B68002B52
:1029A00068D1012346E27B685B68B3F5803F06D1BE
:1029B000804B1B687F4A43F4803313602EE07B68B2
:1029C0005B68002B0CD17B4B1B687A4A23F4803365
:1029D0001360784B1B68774A23F4802313601DE053
:1029E0007B685B68B3F5A02F0CD1724B1B68714AF2
:1029F00043F4802313606F4B1B686E4A43F48033AB
:102A000013600BE06B4B1B686A4A23F4803313603E
:102A1000684B1B68674A23F4802313607B685B68FC
:102A2000002B13D0FFF72CFC386108E0FFF728FCDF
:102A300002463B69D31A642B01D90323FAE15D4BAB
:102A40001B6803F40033002BF0D014E0FFF718FCF0
:102A5000386108E0FFF714FC02463B69D31A642B87
:102A600001D90323E6E1534B1B6803F40033002B29
:102A7000F0D100E000BF7B681B6803F00203002B6D
:102A800063D04C4B5B6803F00C03002B0BD0494B1D
:102A90005B6803F00C03082B1CD1464B5B6803F406
:102AA0008033002B16D1434B1B6803F00203002B2D
:102AB00005D07B681B69012B01D00123BAE13D4B96
:102AC0001B6823F0F8027B685B69DB00394913431C
:102AD0000B603AE07B681B69002B20D0364B01224B
:102AE0001A60FFF7CDFB386108E0FFF7C9FB02462B
:102AF0003B69D31A022B01D903239BE12D4B1B68A1
:102B000003F00203002BF0D02A4B1B6823F0F802DD
:102B10007B685B69DB00274913430B6015E0264B9C
:102B200000221A60FFF7ACFB386108E0FFF7A8FB52
:102B300002463B69D31A022B01D903237AE11D4BCC
:102B40001B6803F00203002BF0D17B681B6803F0C5
:102B50000803002B3AD07B689B69002B19D0174BD8
:102B600001221A60FFF78CFB386108E0FFF788FB51
:102B700002463B69D31A022B01D903235AE10D4BBC
:102B80005B6A03F00203002BF0D0012000F0D8FABA
:102B90001CE00A4B00221A60FFF772FB38610FE05D
:102BA000FFF76EFB02463B69D31A022B08D90323B9
:102BB00040E100BF00100240000042428004424257
:102BC0009E4B5B6A03F00203002BE9D17B681B6814
:102BD00003F00403002B00F0A6800023FB75974B45
:102BE000DB6903F08053002B0DD1944BDB69934AD2
:102BF00043F08053D361914BDB6903F08053BB609A
:102C0000BB680123FB758E4B1B6803F48073002B9C
:102C100018D18B4B1B688A4A43F480731360FFF70B
:102C20002FFB386108E0FFF72BFB02463B69D31A04
:102C3000642B01D90323FDE0814B1B6803F48073EF
:102C4000002BF0D07B68DB68012B06D17B4B1B6A25
:102C50007A4A43F0010313622DE07B68DB68002BA6
:102C60000CD1764B1B6A754A23F001031362734B38
:102C70001B6A724A23F0040313621CE07B68DB6862
:102C8000052B0CD16D4B1B6A6C4A43F00403136295
:102C90006A4B1B6A694A43F0010313620BE0674BFE
:102CA0001B6A664A23F001031362644B1B6A634A82
:102CB00023F0040313627B68DB68002B15D0FFF759
:102CC000DFFA38610AE0FFF7DBFA02463B69D31A04
:102CD00041F28832934201D90323ABE0574B1B6A80
:102CE00003F00203002BEED014E0FFF7C9FA3861BD
:102CF0000AE0FFF7C5FA02463B69D31A41F288326F
:102D0000934201D9032395E04C4B1B6A03F0020365
:102D1000002BEED1FB7D012B05D1484BDB69474AE7
:102D200023F08053D3617B68DB69002B00F0818046
:102D3000424B5B6803F00C03082B61D07B68DB69B6
:102D4000022B46D13F4B00221A60FFF799FA3861F7
:102D500008E0FFF795FA02463B69D31A022B01D926
:102D6000032367E0354B1B6803F00073002BF0D1A1
:102D70007B681B6AB3F5803F08D1304B5B6823F456
:102D800000327B689B682D4913434B602B4B5B687B
:102D900023F474127B68196A7B685B6A0B432749CA
:102DA00013434B60274B01221A60FFF769FA386121
:102DB00008E0FFF765FA02463B69D31A022B01D9F6
:102DC000032337E01D4B1B6803F00073002BF0D08A
:102DD0002FE01C4B00221A60FFF752FA386108E01E
:102DE000FFF74EFA02463B69D31A022B01D903239F
:102DF00020E0124B1B6803F00073002BF0D118E0A9
:102E00007B68DB69012B01D1012313E00B4B5B686D
:102E1000FB60FB6803F480327B681B6A9A4206D130
:102E2000FB6803F470127B685B6A9A4201D001234D
:102E300000E0002318461837BD4680BD0010024050
:102E4000007000406000424280B584B000AF7860FE
:102E500039607B68002B01D10123D0E06A4B1B68ED
:102E600003F007033A689A4210D9674B1B6823F0B6
:102E7000070265493B6813430B60634B1B6803F013
:102E800007033A689A4201D00123B8E07B681B68C7
:102E900003F00203002B20D07B681B6803F00403BF
:102EA000002B05D0594B5B68584A43F4E0635360EC
:102EB0007B681B6803F00803002B05D0534B5B684D
:102EC000524A43F460535360504B5B6823F0F00266
:102ED0007B689B684D4913434B607B681B6803F01C
:102EE0000103002B40D07B685B68012B07D1474B67
:102EF0001B6803F40033002B15D101237FE07B68AE
:102F00005B68022B07D1414B1B6803F00073002B59
:102F100009D1012373E03D4B1B6803F00203002B32
:102F200001D101236BE0394B5B6823F003027B681E
:102F30005B68364913434B60FFF7A2F9F8600AE07B
:102F4000FFF79EF90246FB68D31A41F2883293429A
:102F500001D9032353E02D4B5B6803F00C027B681F
:102F60005B689B009A42EBD1274B1B6803F0070379
:102F70003A689A4210D2244B1B6823F00702224978
:102F80003B6813430B60204B1B6803F007033A6850
:102F90009A4201D0012332E07B681B6803F00403EE
:102FA000002B08D0194B5B6823F4E0627B68DB6878
:102FB000164913434B607B681B6803F00803002B22
:102FC00009D0124B5B6823F460527B681B69DB00FD
:102FD0000E4913434B6000F021F802460B4B5B682F
:102FE0001B0903F00F030A49CB5C22FA03F3094AD9
:102FF0001360094B1B681846FFF700F900231846B9
:103000001037BD4680BD00BF0020024000100240C6
:10301000709E0008080000200C00002090B48AB0C8
:1030200000AF2A4B3C1D0FCB84E80F0040F2012378
:103030003B800023FB610023BB6100237B620023F4
:103040007B6100233B62224B5B68FB61FB6903F001
:103050000C03042B02D0082B03D02DE01D4B3B6248
:103060002DE0FB699B0C03F00F0307F128021344CA
:1030700013F8243C7B61FB6903F48033002B13D0ED
:10308000134B5B685B0C03F0010307F12802134448
:1030900013F8283CBB617B690E4A02FB03F2BB6953
:1030A000B2FBF3F37B6204E07B690B4A02FB03F3A0
:1030B0007B627B6A3B6202E0064B3B6200BF3B6A7D
:1030C00018462837BD4690BC704700BF549E000884
:1030D0000010024000127A0000093D0080B400AFE9
:1030E000024B1B681846BD4680BC70470800002094
:1030F00080B500AFFFF7F2FF0246054B5B681B0A85
:1031000003F007030349CB5C22FA03F3184680BDA2
:1031100000100240809E000880B500AFFFF7DEFF80
:103120000246054B5B68DB0A03F007030349CB5CEF
:1031300022FA03F3184680BD00100240809E00086A
:1031400080B485B000AF78600A4B1B680A4AA2FBC6
:1031500003235B0A7A6802FB03F3FB6000BFFB6892
:103160005A1EFA60002BF9D100BF00BF1437BD46CC
:1031700080BC704708000020D34D621080B582B03B
:1031800000AF78607B68002B01D1012341E07B68B0
:1031900093F83D30DBB2002B06D17B68002283F828
:1031A0003C207868FEF726FE7B68022283F83D20EB
:1031B0007B681A687B6804331946104600F050FD9E
:1031C0007B68012283F846207B68012283F83E2039
:1031D0007B68012283F83F207B68012283F840202E
:1031E0007B68012283F841207B68012283F842201A
:1031F0007B68012283F843207B68012283F8442006
:103200007B68012283F845207B68012283F83D20FA
:10321000002318460837BD4680BD000080B485B045
:1032200000AF78607B6893F83D30DBB2012B01D0B2
:1032300001233AE07B68022283F83D207B681B680B
:10324000DA687B681B6842F00102DA607B681B6801
:10325000184A93420ED07B681B68B3F1804F09D0A7
:103260007B681B68144A934204D07B681B68134A2E
:10327000934211D17B681B689B6803F00703FB60D6
:10328000FB68062B10D07B681B681A687B681B687C
:1032900042F001021A6007E07B681B681A687B68CD
:1032A0001B6842F001021A60002318461437BD461D
:1032B00080BC7047002C0140000400400008004022
:1032C00080B582B000AF78607B68002B01D101230C
:1032D00041E07B6893F83D30DBB2002B06D17B6880
:1032E000002283F83C207868FEF7A8FD7B68022264
:1032F00083F83D207B681A687B68043319461046C2
:1033000000F0AEFC7B68012283F846207B68012236
:1033100083F83E207B68012283F83F207B680122EE
:1033200083F840207B68012283F841207B680122DA
:1033300083F842207B68012283F843207B680122C6
:1033400083F844207B68012283F845207B680122B2
:1033500083F83D20002318460837BD4680BD000095
:1033600080B584B000AF786039603B68002B09D12C
:103370007B6893F83E30DBB2012B14BF012300239E
:10338000DBB222E03B68042B09D17B6893F83F3025
:10339000DBB2012B14BF01230023DBB215E03B6835
:1033A000082B09D17B6893F84030DBB2012B14BFA6
:1033B00001230023DBB208E07B6893F84130DBB2E5
:1033C000012B14BF01230023DBB2002B01D001230A
:1033D0005EE03B68002B04D17B68022283F83E202C
:1033E00013E03B68042B04D17B68022283F83F2062
:1033F0000BE03B68082B04D17B68022283F8402055
:1034000003E07B68022283F841207B681B6801226D
:103410003968184600F0A4FE7B681B681E4A934278
:1034200007D17B681B685A6C7B681B6842F40042BA
:103430005A647B681B68184A93420ED07B681B68ED
:10344000B3F1804F09D07B681B68144A934204D0C3
:103450007B681B68124A934211D17B681B689B688A
:1034600003F00703FB60FB68062B10D07B681B682A
:103470001A687B681B6842F001021A6007E07B68EB
:103480001B681A687B681B6842F001021A600023FF
:1034900018461037BD4680BD002C01400004004096
:1034A0000008004080B586B000AF786039607B6866
:1034B000002B01D1012393E07B6893F83D30DBB210
:1034C000002B06D17B68002283F83C207868FEF749
:1034D00051FC7B68022283F83D207B681B689B6857
:1034E0007A68126823F4804323F0070393607B68B3
:1034F0001A687B6804331946104600F0B1FB7B68FC
:103500001B689B687B617B681B689B693B617B6870
:103510001B681B6AFB603B681B687A6913437B610D
:103520003B6923F4407323F003033B613B689A68D3
:103530003B689B691B0213433A6913433B613B6938
:1035400023F4406323F00C033B613B6923F4704395
:1035500023F0F0033B613B68DA683B68DB691B02E0
:1035600013433A6913433B613B681B691A013B688B
:103570001B6A1B0313433A6913433B61FB6823F047
:103580002203FB603B685A683B685B691B0113437D
:10359000FA681343FB607B681B687A699A607B68F2
:1035A0001B683A699A617B681B68FA681A627B68D3
:1035B000012283F846207B68012283F83E207B6845
:1035C000012283F83F207B68012283F842207B6838
:1035D000012283F843207B68012283F83D200023E9
:1035E00018461837BD4680BD80B584B000AF7860FE
:1035F00039607B6893F83E30FB737B6893F83F300B
:10360000BB737B6893F842307B737B6893F84330DD
:103610003B733B68002B10D1FB7B012B02D17B7BE2
:10362000012B01D0012369E07B68022283F83E2050
:103630007B68022283F8422031E03B68042B10D1E2
:10364000BB7B012B02D13B7B012B01D0012355E039
:103650007B68022283F83F207B68022283F84320A4
:103660001DE0FB7B012B08D1BB7B012B05D17B7BB4
:10367000012B02D13B7B012B01D001233EE07B6873
:10368000022283F83E207B68022283F83F207B6879
:10369000022283F842207B68022283F843203B68A1
:1036A000002B03D03B68042B08D00FE07B681B681D
:1036B00001220021184600F053FD16E07B681B68CC
:1036C00001220421184600F04BFD0EE07B681B68C8
:1036D00001220021184600F043FD7B681B6801228F
:1036E0000421184600F03CFD00BF7B681B681A6887
:1036F0007B681B6842F001021A60002318461037ED
:10370000BD4680BD80B582B000AF78607B681B6825
:103710001B6903F00203022B22D17B681B68DB6864
:1037200003F00203022B1BD17B681B686FF00202BF
:103730001A617B6801221A777B681B689B6903F01A
:103740000303002B03D0786800F06FFA05E0786877
:1037500000F062FA786800F071FA7B6800221A774C
:103760007B681B681B6903F00403042B22D17B6870
:103770001B68DB6803F00403042B1BD17B681B6808
:103780006FF004021A617B6802221A777B681B685B
:103790009B6903F44073002B03D0786800F045FA6E
:1037A00005E0786800F038FA786800F047FA7B683E
:1037B00000221A777B681B681B6903F00803082B3B
:1037C00022D17B681B68DB6803F00803082B1BD140
:1037D0007B681B686FF008021A617B6804221A7705
:1037E0007B681B68DB6903F00303002B03D0786858
:1037F00000F01BFA05E0786800F00EFA786800F037
:103800001DFA7B6800221A777B681B681B6903F02E
:103810001003102B22D17B681B68DB6803F01003B8
:10382000102B1BD17B681B686FF010021A617B683C
:1038300008221A777B681B68DB6903F44073002B4E
:1038400003D0786800F0F1F905E0786800F0E4F959
:10385000786800F0F3F97B6800221A777B681B68B0
:103860001B6903F00103012B0ED17B681B68DB6829
:1038700003F00103012B07D17B681B686FF0010285
:103880001A617868FDF7EEFC7B681B681B6903F022
:103890008003802B0ED17B681B68DB6803F08003FC
:1038A000802B07D17B681B686FF080021A617868F3
:1038B00000F0E1FC7B681B681B6903F04003402BB0
:1038C0000ED17B681B68DB6803F04003402B07D1F7
:1038D0007B681B686FF040021A61786800F0B7F9E6
:1038E0007B681B681B6903F02003202B0ED17B68CB
:1038F0001B68DB6803F02003202B07D17B681B6863
:103900006FF020021A61786800F0ACFC00BF083745
:10391000BD4680BD80B584B000AFF860B9607A6004
:10392000FB6893F83C30012B01D10223ACE0FB682B
:10393000012283F83C207B680C2B00F29F8001A2BF
:1039400052F823F0793900087D3A00087D3A0008E2
:103950007D3A0008B93900087D3A00087D3A000830
:103960007D3A0008FB3900087D3A00087D3A0008DE
:103970007D3A00083B3A0008FB681B68B9681846A6
:1039800000F0D0F9FB681B689A69FB681B6842F07D
:1039900008029A61FB681B689A69FB681B6822F041
:1039A00004029A61FB681B689969BB681A69FB6825
:1039B0001B680A439A6162E0FB681B68B968184695
:1039C00000F016FAFB681B689A69FB681B6842F4F2
:1039D00000629A61FB681B689A69FB681B6822F4A5
:1039E00080629A61FB681B689969BB681B691A024F
:1039F000FB681B680A439A6141E0FB681B68B96871
:103A0000184600F05FFAFB681B68DA69FB681B6800
:103A100042F00802DA61FB681B68DA69FB681B6820
:103A200022F00402DA61FB681B68D969BB681A6975
:103A3000FB681B680A43DA6121E0FB681B68B96810
:103A4000184600F0A9FAFB681B68DA69FB681B6876
:103A500042F40062DA61FB681B68DA69FB681B6884
:103A600022F48062DA61FB681B68D969BB681B6954
:103A70001A02FB681B680A43DA6100E000BFFB68BA
:103A8000002283F83C20002318461037BD4680BD35
:103A900080B584B000AF786039607B6893F83C30C3
:103AA000012B01D10223B3E07B68012283F83C2083
:103AB0007B68022283F83D207B681B689B68FB6063
:103AC000FB6823F07703FB60FB6823F47F43FB6014
:103AD0007B681B68FA689A603B681B68B3F5005FF7
:103AE0003ED0B3F5005F00F28780B3F5805F00F051
:103AF0008580B3F5805F7FD8702B1AD0702B7BD870
:103B0000602B50D0602B77D8502B3CD0502B73D8E3
:103B1000402B58D0402B6FD8302B64D0302B6BD833
:103B2000202B60D0202B67D8002B5CD0102B5AD0D4
:103B300062E07B6818683B6899683B685A683B6834
:103B4000DB6800F0EEFA7B681B689B68FB60FB6833
:103B500043F07703FB607B681B68FA689A604EE06D
:103B60007B6818683B6899683B685A683B68DB6803
:103B700000F0D7FA7B681B689A687B681B6842F480
:103B800080429A603BE07B6818683B6859683B68F4
:103B9000DB681A4600F04EFA7B681B685021184615
:103BA00000F0A5FA2BE07B6818683B6859683B6811
:103BB000DB681A4600F06CFA7B681B6860211846C7
:103BC00000F095FA1BE07B6818683B6859683B6811
:103BD000DB681A4600F02EFA7B681B684021184605
:103BE00000F085FA0BE07B681A683B681B68194691
:103BF000104600F07CFA02E000BF00E000BF7B68E6
:103C0000012283F83D207B68002283F83C200023BA
:103C100018461037BD4680BD80B483B000AF7860D1
:103C200000BF0C37BD4680BC704780B483B000AF86
:103C3000786000BF0C37BD4680BC704780B483B04D
:103C400000AF786000BF0C37BD4680BC704780B4C1
:103C500083B000AF786000BF0C37BD4680BC7047B2
:103C600080B485B000AF786039607B681B68FB600A
:103C70007B68294A93420BD07B68B3F1804F07D011
:103C80007B68264A934203D07B68254A934208D139
:103C9000FB6823F07003FB603B685B68FA681343C2
:103CA000FB607B681C4A93420BD07B68B3F1804F6A
:103CB00007D07B68194A934203D07B68184A934225
:103CC00008D1FB6823F44073FB603B68DB68FA684B
:103CD0001343FB60FB6823F080023B685B6913437E
:103CE000FB607B68FA681A603B689A687B68DA62F6
:103CF0003B681A687B689A627B68074A934203D1E3
:103D00003B681A697B681A637B6801225A6100BFAD
:103D10001437BD4680BC7047002C014000040040B1
:103D20000008004080B487B000AF786039607B68DD
:103D30001B6A23F001027B681A627B681B6A7B6145
:103D40007B685B683B617B689B69FB60FB6823F079
:103D50007003FB60FB6823F00303FB603B681B6898
:103D6000FA681343FB607B6923F002037B613B68C5
:103D70009B687A6913437B617B681C4A93420CD130
:103D80007B6923F008037B613B68DB687A69134336
:103D90007B617B6923F004037B617B68134A934258
:103DA00011D13B6923F480733B613B6923F40073B9
:103DB0003B613B685B693A6913433B613B689B69C4
:103DC0003A6913433B617B683A695A607B68FA68D9
:103DD0009A613B685A687B685A637B687A691A62A1
:103DE00000BF1C37BD4680BC704700BF002C01409F
:103DF00080B487B000AF786039607B681B6A23F0BD
:103E000010027B681A627B681B6A7B617B685B6857
:103E10003B617B689B69FB60FB6823F4E043FB60CC
:103E2000FB6823F44073FB603B681B681B02FA6865
:103E30001343FB607B6923F020037B613B689B6835
:103E40001B017A6913437B617B681D4A93420DD144
:103E50007B6923F080037B613B68DB681B017A6927
:103E600013437B617B6923F040037B617B68144AC9
:103E7000934213D13B6923F480633B613B6923F494
:103E800000633B613B685B699B003A6913433B619C
:103E90003B689B699B003A6913433B617B683A69C5
:103EA0005A607B68FA689A613B685A687B689A63D3
:103EB0007B687A691A6200BF1C37BD4680BC7047B8
:103EC000002C014080B487B000AF786039607B6817
:103ED0001B6A23F480727B681A627B681B6A7B61B1
:103EE0007B685B683B617B68DB69FB60FB6823F098
:103EF0007003FB60FB6823F00303FB603B681B68F7
:103F0000FA681343FB607B6923F400737B613B68B1
:103F10009B681B027A6913437B617B681D4A93424D
:103F20000DD17B6923F400637B613B68DB681B0276
:103F30007A6913437B617B6923F480637B617B68CF
:103F4000144A934213D13B6923F480533B613B698C
:103F500023F400533B613B685B691B013A691343DF
:103F60003B613B689B691B013A6913433B617B687A
:103F70003A695A607B68FA68DA613B685A687B681C
:103F8000DA637B687A691A6200BF1C37BD4680BC61
:103F9000704700BF002C014080B487B000AF78604C
:103FA00039607B681B6A23F480527B681A627B68E5
:103FB0001B6A3B617B685B687B617B68DB69FB60DC
:103FC000FB6823F4E043FB60FB6823F44073FB6071
:103FD0003B681B681B02FA681343FB603B6923F4D0
:103FE00000533B613B689B681B033A6913433B6189
:103FF0007B680F4A934209D17B6923F480437B613C
:104000003B685B699B017A6913437B617B687A69D2
:104010005A607B68FA68DA613B685A687B681A64A0
:104020007B683A691A6200BF1C37BD4680BC704786
:10403000002C014080B487B000AFF860B9607A60AE
:10404000FB681B6A7B61FB681B6A23F00102FB684B
:104050001A62FB689B693B613B6923F0F0033B619B
:104060007B681B013A6913433B617B6923F00A03B8
:104070007B617A69BB6813437B61FB683A699A612B
:10408000FB687A691A6200BF1C37BD4680BC704766
:1040900080B487B000AFF860B9607A60FB681B6AD3
:1040A00023F01002FB681A62FB689B697B61FB6866
:1040B0001B6A3B617B6923F470437B617B681B0354
:1040C0007A6913437B613B6923F0A0033B61BB68C2
:1040D0001B013A6913433B61FB687A699A61FB688B
:1040E0003A691A6200BF1C37BD4680BC704780B475
:1040F00085B000AF786039607B689B68FB60FB68C7
:1041000023F07003FB603A68FB68134343F0070336
:10411000FB607B68FA689A6000BF1437BD4680BCBC
:10412000704780B487B000AFF860B9607A603B60D8
:10413000FB689B687B617B6923F47F437B613B6801
:104140001A027B681A43BB6813437A6913437B6185
:10415000FB687A699A6000BF1C37BD4680BC704717
:1041600080B487B000AFF860B9607A60BB6803F0D4
:104170001F03012202FA03F37B61FB681A6A7B6961
:10418000DB431A40FB681A62FB681A6ABB6803F0DB
:104190001F03796801FA03F31A43FB681A6200BF30
:1041A0001C37BD4680BC704780B485B000AF7860D6
:1041B00039607B6893F83C30012B01D1022346E043
:1041C0007B68012283F83C207B68022283F83D2033
:1041D0007B681B685B68FB607B681B689B68BB60D7
:1041E000FB6823F07003FB603B681B68FA681343AD
:1041F000FB607B681B68FA685A607B681B68164A1C
:1042000093420ED07B681B68B3F1804F09D07B6866
:104210001B68124A934204D07B681B68104A934281
:104220000CD1BB6823F08003BB603B685B68BA6855
:104230001343BB607B681B68BA689A607B68012285
:1042400083F83D207B68002283F83C200023184639
:104250001437BD4680BC7047002C0140000400406C
:104260000008004080B483B000AF786000BF0C3716
:10427000BD4680BC704780B483B000AF786000BF9B
:104280000C37BD4680BC704780B582B000AF786007
:104290007B68002B01D101233FE07B6893F83D3020
:1042A000DBB2002B06D17B68002283F83C207868C3
:1042B000FDF714FE7B68242283F83D207B681B6891
:1042C000DA687B681B6822F40052DA60786800F0D4
:1042D00085FC7B681B681A697B681B6822F4904226
:1042E0001A617B681B685A697B681B6822F02A0286
:1042F0005A617B681B68DA687B681B6842F400526D
:10430000DA607B6800221A647B68202283F83D20F3
:104310007B68202283F83E20002318460837BD46DC
:1043200080BD80B58AB002AFF860B9603B601346CB
:10433000FB8000237B61FB6893F83D30DBB2202BD0
:104340007CD1BB68002B02D0FB88002B01D101235C
:1043500075E0FB6893F83C30012B01D102236EE03D
:10436000FB68012283F83C20FB6800221A64FB688A
:10437000212283F83D20FDF783FF7861FB68FA88EE
:104380009A84FB68FA88DA84FB689B68B3F5805FDF
:1043900008D1FB681B69002B04D10023FB61BB68BB
:1043A000BB6103E0BB68FB610023BB61FB680022CB
:1043B00083F83C202AE03B6800937B69002280213F
:1043C000F86800F038FA0346002B01D0032336E0EA
:1043D000FB69002B0BD1BB691B881A46FB681B6865
:1043E000C2F308025A60BB690233BB6107E0FB6994
:1043F0001A78FB681B685A60FB690133FB61FB6834
:10440000DB8C9BB2013B9AB2FB68DA84FB68DB8CE5
:104410009BB2002BCFD13B6800937B6900224021E7
:10442000F86800F008FA0346002B01D0032306E0E9
:10443000FB68202283F83D20002300E00223184679
:104440002037BD4680BD80B584B000AFF860B9604C
:104450001346FB80FB6893F83E30DBB2202B1DD166
:10446000BB68002B02D0FB88002B01D1012316E092
:10447000FB6893F83C30012B01D102230FE0FB686D
:10448000012283F83C20FB6800221A63FB881A464D
:10449000B968F86800F019FA034600E002231846EC
:1044A0001037BD4680BD000080B58AB000AF78608F
:1044B0007B681B681B687B627B681B68DB683B62F0
:1044C0007B681B685B69FB610023BB6100237B6128
:1044D0007B6A03F00F03BB61BB69002B0DD17B6AC4
:1044E00003F02003002B08D03B6A03F02003002BCD
:1044F00003D0786800F0C9FA7BE1BB69002B00F0BB
:10450000B180FB6903F00103002B05D13B6A03F482
:104510009073002B00F0A6807B6A03F00103002B50
:104520000AD03B6A03F48073002B05D07B681B6CB8
:1045300043F001027B681A647B6A03F00403002BDA
:104540000AD0FB6903F00103002B05D07B681B6CCC
:1045500043F002027B681A647B6A03F00203002BBB
:104560000AD0FB6903F00103002B05D07B681B6CAC
:1045700043F004027B681A647B6A03F00803002B93
:104580000FD03B6A03F02003002B04D1FB6903F03A
:104590000103002B05D07B681B6C43F008027B688D
:1045A0001A647B681B6C002B00F01E817B6A03F091
:1045B0002003002B07D03B6A03F02003002B02D01E
:1045C000786800F062FA7B681B685B6903F040035F
:1045D000002B14BF01230023DBB27B617B681B6CC3
:1045E00003F00803002B02D17B69002B31D07868DF
:1045F00000F0A4F97B681B685B6903F04003002BA3
:1046000023D07B681B685A697B681B6822F04002D4
:104610005A617B689B6B002B13D07B689B6B764A3F
:104620005A637B689B6B1846FDF77CFF0346002BA3
:1046300016D07B689B6B5B6B7A68926B10469847D1
:104640000EE0786800F0E3F80AE0786800F0DFF840
:1046500006E0786800F0DBF87B6800221A64C3E0AB
:1046600000BFC1E07B681B6B012B40F0A1807B6A1F
:1046700003F01003002B00F09B803B6A03F0100353
:10468000002B00F095800023FB607B681B681B6893
:10469000FB607B681B685B68FB60FB687B681B6872
:1046A0005B6903F04003002B4ED07B689B6B1B685B
:1046B0005B683B823B8A002B00F098807B689B8D77
:1046C0003A8A9A4280F092807B683A8ADA857B68DF
:1046D0009B6B9B69202B2BD07B681B68DA687B68FF
:1046E0001B6822F48072DA607B681B685A697B68F9
:1046F0001B6822F001025A617B681B685A697B685B
:104700001B6822F040025A617B68202283F83E2019
:104710007B6800221A637B681B68DA687B681B6809
:1047200022F01002DA607B689B6B1846FDF7BFFE33
:104730007B689A8D7B68DB8D9BB2D31A9BB219463E
:10474000786800F06DF851E07B689A8D7B68DB8DAE
:104750009BB2D31A7B827B68DB8D9BB2002B47D048
:104760007B8A002B44D07B681B68DA687B681B68F7
:1047700022F49072DA607B681B685A697B681B6858
:1047800022F001025A617B68202283F83E207B6878
:1047900000221A637B681B68DA687B681B6822F05A
:1047A0001002DA607B8A1946786800F039F81FE059
:1047B0007B6A03F08003002B08D03B6A03F0800380
:1047C000002B03D0786800F0F9F812E07B6A03F060
:1047D0004003002B0DD03B6A03F04003002B08D0B0
:1047E000786800F03AF904E000BF02E000BF00E0A2
:1047F00000BF2837BD4680BD9549000880B483B00E
:1048000000AF786000BF0C37BD4680BC704780B4F5
:1048100083B000AF786000BF0C37BD4680BC7047E6
:1048200080B483B000AF78600B467B8000BF0C374C
:10483000BD4680BC704780B584B000AFF860B960F9
:104840003B601346FB712CE0BB69B3F1FF3F28D0FE
:10485000BB69002B07D0FDF713FD02463B68D31A56
:10486000BA699A421DD2FB681B68DA68FB681B684C
:1048700022F4D072DA60FB681B685A69FB681B6817
:1048800022F001025A61FB68202283F83D20FB6878
:10489000202283F83E20FB68002283F83C2003237B
:1048A0000FE0FB681B681A68BB681340BA689A423D
:1048B0000CBF01230023DBB21A46FB799A42C3D016
:1048C000002318461037BD4680BD80B485B000AFC8
:1048D000F860B9601346FB80FB68BA689A62FB68AF
:1048E000FA889A85FB68FA88DA85FB6800221A64E0
:1048F000FB68222283F83E20FB68002283F83C20DC
:10490000FB681B68DA68FB681B6842F48072DA6037
:10491000FB681B685A69FB681B6842F001025A6118
:10492000FB681B68DA68FB681B6842F02002DA60EB
:10493000002318461437BD4680BC704780B483B04E
:1049400000AF78607B681B68DA687B681B6822F4BC
:104950009072DA607B681B685A697B681B6822F07A
:1049600001025A617B681B6B012B07D17B681B68B6
:10497000DA687B681B6822F01002DA607B6820220C
:1049800083F83E207B6800221A6300BF0C37BD46C7
:1049900080BC704780B584B000AF78607B685B6A8C
:1049A000FB60FB680022DA85FB680022DA84F86885
:1049B000FFF72DFF00BF1037BD4680BD80B485B026
:1049C00000AF78607B6893F83D30DBB2212B3ED19D
:1049D0007B689B68B3F5805F14D17B681B69002BF3
:1049E00010D17B681B6AFB60FB681B881A467B68DA
:1049F0001B68C2F308025A607B681B6A9A1C7B68BA
:104A00001A6208E07B681B6A591C7A6811621A787E
:104A10007B681B685A607B68DB8C9BB2013B9BB256
:104A20007A681946D184002B0FD17B681B68DA683D
:104A30007B681B6822F08002DA607B681B68DA689A
:104A40007B681B6842F04002DA60002300E002232A
:104A500018461437BD4680BC704780B582B000AFA1
:104A600078607B681B68DA687B681B6822F040020C
:104A7000DA607B68202283F83D207868FFF7BEFE6D
:104A8000002318460837BD4680BD80B586B000AF0C
:104A900078607B6893F83E30DBB2222B40F099803F
:104AA0007B689B68B3F5805F17D17B681B69002B1F
:104AB00013D100237B617B689B6A3B617B681B6829
:104AC0005B689BB2C3F308039AB23B691A807B68A8
:104AD0009B6A9A1C7B689A6226E07B689B6A7B6172
:104AE00000233B617B689B68B3F5805F07D07B68E0
:104AF0009B68002B0AD17B681B69002B06D17B6861
:104B00001B685B68DAB27B691A7008E07B681B6817
:104B10005B68DBB203F07F03DAB27B691A707B68F3
:104B20009B6A5A1C7B689A627B68DB8D9BB2013B57
:104B30009BB27A681946D185002B48D17B681B68E7
:104B4000DA687B681B6822F02002DA607B681B68E9
:104B5000DA687B681B6822F48072DA607B681B6805
:104B60005A697B681B6822F001025A617B68202227
:104B700083F83E207B681B6B012B23D17B680022CE
:104B80001A637B681B68DA687B681B6822F0100276
:104B9000DA607B681B681B6803F01003102B0AD1D6
:104BA0000023FB607B681B681B68FB607B681B68DD
:104BB0005B68FB60FB687B689B8D19467868FFF734
:104BC0002FFE02E07868FCF717FD002302E00023C7
:104BD00000E0022318461837BD4680BD80B584B07A
:104BE00000AF78607B681B681B6923F440517B68C9
:104BF000DA687B681B680A431A617B689A687B687D
:104C00001B691A437B685B691343BB607B681B6845
:104C1000DB6823F4B05323F00C037A681268B96898
:104C20000B43D3607B681B685B6923F440717B682E
:104C30009A697B681B680A435A617B681B682C4A27
:104C4000934203D1FEF768FAF86002E0FEF750FAEB
:104C5000F860FA6813469B0013449A001A447B6874
:104C60005B689B00B2FBF3F3224AA2FB03235B09C0
:104C70001901FA6813469B0013449A001A447B6892
:104C80005B689B00B2FBF3F21A4BA3FB02035B09C8
:104C9000642000FB03F3D31A1B013233154AA2FB35
:104CA00003235B0903F0F0031944FA6813469B00E1
:104CB00013449A001A447B685B689B00B2FBF3F2D2
:104CC0000C4BA3FB02035B09642000FB03F3D31A24
:104CD0001B013233074AA2FB03235B0903F00F02D7
:104CE0007B681B680A449A6000BF1037BD4680BDD0
:104CF000003801401F85EB51014B1868704700BF19
:104D00001400002070B500260C4D0D4C641BA4103F
:104D1000A64209D105F062F800260A4D0A4C641B30
:104D2000A410A64205D170BD55F8043B9847013642
:104D3000EEE755F8043B98470136F2E754A3000824
:104D400054A3000854A3000858A3000803460244D3
:104D5000934200D1704703F8011BF9E7002B2DE9BE
:104D6000F0471F46BBBF03F100431F4600232D231E
:104D700088B01446129A109D1370149BDDF84CA055
:104D800023F02008B8F1460F05D0B8F1450F00D147
:104D90000135022300E0032307AA049206AACDE905
:104DA00002A2CDE9003522463B4601F031FEB8F1C2
:104DB000470F064602D1119BDB0722D5B8F1460FFB
:104DC00006EB050910D13378302B0AD100220023DD
:104DD00020463946FBF7E8FD18B9C5F10105CAF8C8
:104DE0000050DAF80030994400220023204639466A
:104DF000FBF7DAFD08B1CDF81C903022079B4B453C
:104E000007D33046079B159A9B1B136008B0BDE87B
:104E1000F087591C07911A70F0E70346F7B500298F
:104E200003F8022BB6BF2D222B22494209294270DA
:104E30002BDD0DF10704A4460A2791FBF7F60A467D
:104E4000A64607FB1615632A05F13005314604F125
:104E5000FF340EF8015CF0DC3031AEF1020504F8ED
:104E6000011C2946441C61450AD30DF10902A2EB3D
:104E70000E02654588BF00221344181A03B0F0BD26
:104E800011F8012B04F8012FEDE730233031837046
:104E9000C170031DF1E700002DE9F04F91B00C4601
:104EA000DDF8688016461F46054602F005FF0368D8
:104EB00018460993FBF74CF900230E93D8F80030FD
:104EC0000A90073323F0070303F1080294F81890BF
:104ED000D4F800B0C8F80020D3E90023C4E91223B5
:104EE000D4E9128A2AF000430B934FF0FF32404678
:104EF0009C4B0B99FBF78AFD70BB4FF0FF3240468D
:104F0000984B0B99FBF764FD30BB00220023404611
:104F10005146FBF753FD10B12D2384F84330924BDB
:104F20009248B9F1470F94BF9846804603234FF04B
:104F3000000A23612BF004032360334621462846F0
:104F400000970FAA00F0D4F9013040F090804FF0A4
:104F5000FF3011B0BDE8F08F4246534640465146FF
:104F6000FBF754FD48B1BAF1000FB8BF2D238048BC
:104F7000B8BF84F843307F4BD3E7636809F0DF01A3
:104F80005A1C42D106236360002206920EAACDE984
:104F900004920DAA4BF4806303920DF13302CDE924
:104FA00001322360636842460093284653460B91C2
:104FB000FFF7D4FE0B99804647290D9908D1C81CEC
:104FC00002DB6368994240DDA9F102095FFA89F9C1
:104FD000B9F1650F1FD84A46013904F150000D910F
:104FE000FFF71BFF0E9A82461318012A236102DC89
:104FF0002268D20701D5013323619DF83330002B9D
:105000009BD02D2384F8433097E74729BCD1002B50
:10501000BAD10123B7E7B9F1660F18D10029636847
:105020000BDD216113B92268D00702D501330B448F
:1050300023614FF0000AA165DFE713B92268D207A8
:1050400001D50233F4E70123F2E74FF067090E9B25
:10505000994205DB23682161D807EAD54B1CE7E7B5
:105060000029CCBF0122C1F102021344E0E723680A
:105070005A0507D42369424631462846B8470130CD
:105080002BD164E7B9F1650F40F2DD80D4E912015C
:1050900000220023FBF788FC002833D0012331468F
:1050A0002846354AB84701303FF451AFDDE90D23BA
:1050B0009A4202DB2368D8070FD5DDE90923314680
:1050C0002846B84701303FF442AF4FF0000804F1E2
:1050D0001A090E9B013B434509DC23689B0700F13D
:1050E0000281E0680F9B9842B8BF184631E7012360
:1050F0004A4631462846B84701303FF428AF08F108
:105100000108E6E70D9B002B38DC012331462846D9
:10511000194AB84701303FF41AAFDDE90D231343B4
:1051200002D12368D907D8D5DDE9092331462846BD
:10513000B84701303FF40BAF4FF0000904F11A0AF1
:105140000D9B5B424B4501DC0E9B94E701235246CD
:1051500031462846B84701303FF4F9AE09F101095C
:10516000EEE700BFFFFFEF7F8C9E0008909E0008D7
:10517000989E0008949E0008A1A200080E9AA36DB4
:105180009A42A8BF1A46002A914637DC4FF0000B1E
:1051900029EAE97904F11A02D4F858A0AAEB090324
:1051A0005B4533DCDDE90D239A423BDB2368DA07FC
:1051B00038D40E9A0D99A2EB0A03A2EB0109994586
:1051C000A8BF9946B9F1000F34DC4FF0000829EA76
:1051D000E97904F11A0ADDE90D239B1AA3EB09030F
:1051E00043457FF77AAF0123524631462846B847F8
:1051F00001303FF4ACAE08F10108ECE7134631464C
:1052000042462846B8470130C0D1A0E601233146C6
:1052100028460B92B84701303FF499AE0B9A0BF138
:10522000010BB9E73146DDE909232846B8470130CB
:10523000BFD18CE64B463146284608EB0A02B847F8
:105240000130C2D183E60E9A012A01DCDB0737D593
:105250000123424631462846B84701303FF477AE35
:10526000DDE9092331462846B84701303FF46FAEE7
:10527000D4E9120100220023FBF796FBD8B90E9B5C
:1052800008F10102013B31462846B84701300ED1F2
:105290005DE601234A4631462846B84701303FF4CF
:1052A00056AE08F101080E9B013B4345F1DC534625
:1052B00004F15002E0E64FF0000804F11A09F2E7A9
:1052C00001234246DFE701234A4631462846B847D4
:1052D00001303FF43CAE08F10108E3680F995B1A16
:1052E0004345F0DCFDE64FF0000804F11909F4E74E
:1052F0002DE9F047164699468A680B69074693429E
:10530000B8BF1346336091F843200C46DDF8208087
:105310000AB1013333602368990642BF3368023310
:105320003360256815F0060506D104F1190AE36813
:1053300032689B1AAB4228DC94F84320131E226883
:1053400018BF012392062DD44946384604F1430282
:10535000C047013020D02368E56803F00603042B22
:1053600018BF002532684FF00006A36808BFAD1AC9
:10537000226908BF25EAE5759342C4BF9B1AED1860
:105380001A34B5421AD1002008E00123524649469A
:105390003846C047013003D14FF0FF30BDE8F087F9
:1053A0000135C4E73020E11881F843005A1C94F815
:1053B00045102244023382F84310C5E701232246F8
:1053C00049463846C0470130E6D00136D9E70000EB
:1053D0002DE9FF470C46277E9146782F80469A4656
:1053E0000C9904F1430207D8622F0AD8002F00F06D
:1053F000D980582F00F0A48004F1420684F842704E
:105400003AE0A7F16303152BF6D801A050F823F07A
:10541000695400087D540008F9530008F953000846
:10542000F9530008F95300087D540008F9530008A7
:10543000F9530008F9530008F95300088B55000888
:10544000AD5400086D550008F9530008F9530008E1
:10545000AD550008F9530008AD540008F953000891
:10546000F9530008755500080B6804F142061A1D2F
:105470001B680A6084F842300123A4E025680868AC
:105480002E0600F104030AD505680B60002D03DA2F
:105490002D236D4284F843300A235E4819E015F04D
:1054A000400F05680B6018BF2DB2EFE70B68256849
:1054B000181D0860280601D51D6802E06906FBD5A5
:1054C0001D886F2F0CBF08230A235248002184F83F
:1054D00043106668002EA8BF2168A660A4BF21F013
:1054E000040121600DB9002E4DD01646B5FBF3F135
:1054F00003FB1157C75D06F8017D2F46BB420D46E1
:10550000F4D9082B0BD12368DF0708D5236961681C
:105510009942DEBF302306F8013C06F1FF36921BAC
:1055200022614B4621464046CDF800A003AAFFF772
:10553000DFFE01304CD14FF0FF3004B0BDE8F08702
:10554000344884F845700E68236856F8045B1F06DB
:105550000E6014D5D90744BF43F0200323601DB962
:10556000236823F0200323601023AFE7236843F070
:10557000200323607823284884F84530E3E75E065B
:1055800048BFADB2E6E71646BBE70B6826681D1DAF
:1055900060690D6035061B6801D5186002E0710670
:1055A000FBD51880002316462361BAE70B681A1D45
:1055B0000A601E6800213046626802F0ADFB08B147
:1055C000801B606063682361002384F84330A8E790
:1055D0003246494640462369D0470130ABD0236864
:1055E0009B0713D4E068039B9842B8BF1846A4E712
:1055F0000123324649464046D04701309BD0013511
:10560000E36803995B1AAB42F2DCEBE7002504F197
:105610001906F5E79C9E0008AD9E00082DE9F04FA5
:1056200087B003938B6817465A1EB2F5AE7F85BFCD
:105630006FF4AE755B190023029388BF40F25D13CF
:105640008B464FF000058CBF8B6002930B68804641
:1056500043F4F0634BF81C3B0C465E46AA46A94651
:10566000CDE904550195A26852B13B681B784E2BD9
:1056700064D8402B3CD8A3F12B01C8B20E283AD9EC
:10568000B9F1000F03D0236823F4807323600AF17B
:10569000FF3ABAF1010F00F213815E4500F2058175
:1056A0000125284607B0BDE8F08FA3F161020D2A5D
:1056B000E6D801A151F822F0F757000881560008FA
:1056C0008156000881560008575800082F580008D6
:1056D00081560008815600080558000881560008C8
:1056E000815600088156000881560008BD57000801
:1056F000A3F14102DBE70E29C2D801A050F821F046
:10570000AF57000881560008AF57000843580008FB
:10571000815600085D5700089957000899570008FE
:105720009957000899570008995700089957000899
:105730009957000899570008995700086E2B09D807
:10574000602BB2D8542B77D0592B99D1072D97D1F4
:10575000082529E0742B6FD0792BF6E72168C8055E
:105760001AD5029B21F08001216009F101091BB1CA
:10577000013B01320293A260A368013BA36023694D
:10578000013323617B68013B002B7B6040F3848005
:105790003B6801333B6066E71AEB050F7FF470AF9F
:1057A000226822F4C072226006F8013BE4E7226816
:1057B00010067FF565AF22F08002F4E7BAF1000F22
:1057C0000ED1B9F1000F0ED1226802F4E061B1F5FB
:1057D000E06F08D122F4F0624FF0010A2260E3E7A3
:1057E000BAF1020F55D0012D02D0042D7FF448AF3D
:1057F0000135EDB2D8E7BAF1010F7FF441AF4FF0B8
:10580000020AD1E77DB9B9F1000F7FF43CAF2268FD
:1058100002F4E061B1F5E06F7FF439AF22F4F06299
:1058200001252260C0E7032DE2D0052DDEE7022D21
:105830007FF426AF0325B7E7062D7FF421AF0725B8
:10584000B2E7226891057FF51BAF22F42072226037
:10585000CDF80490A8E7226802F4A061B1F5806F4A
:1058600006D050057FF50CAFB9F1000F3FF40FAF34
:10587000910558BF019922F4F06258BFA9EB0101CC
:1058800042F4C0724FF0000958BFCDE904162260FF
:105890008AE74FF0030A87E739464046D4F880315B
:1058A000984700283FF4DFAEEAE6D4F87C313A4668
:1058B000404616F8011D98472369013B2361ECE639
:1058C0006B1E062B25D8022D36D85E457FF6E8AE36
:1058D000D4F87C313A46404616F8011D98472369B2
:1058E000013B2361F1E70298D4F87C3110F8011DE7
:1058F0003A460290404698472369013B23610AF1EA
:10590000FF3A5FFA8AFABAF1020FECD1033DEDB229
:10591000761B2368DA052FD55B0510D55E457FF62B
:10592000BFAED4F87C313A46404616F8011D984780
:105930002369013B2361F1E7AA460296DFE716F8E7
:10594000011C2369652903F1FF3306F1FF3523614B
:105950000CD045290AD0D4F87C313A4640469847C5
:10596000236916F8021C013BB51E23613A464046E6
:10597000D4F87C3198472E46256815F0100559D18A
:105980003570236803F4C063B3F5806F1CD1019BAD
:105990004B45A3EB090224D100225946404600F0B2
:1059A000F7FED4F800C0039B1CF0020F06460F461A
:1059B0001B6821D003991A1D0A601B68C3E90067A0
:1059C000E3680133E3606CE6049B002BE4D00599A7
:1059D0000A232A464046013100F066FF049B059EDB
:1059E000C21A04F26F139E4228BF04F5B776304600
:1059F000114900F029F8CFE71CF0040F03F1040E61
:105A000003D00399C1F800E0D7E7039AC2F800E099
:105A1000D3F8008002460B46FAF7F8FF28B1074892
:105A200000F00EF8C8F80000CAE730463946FBF728
:105A30004BF8F7E7002534E6BE9E0008F3A2000805
:105A4000004870470000C07F0EB46FF0004100B501
:105A50009CB01DAB0290069007910491084809493B
:105A600053F8042B0591006802A9019302F038FF56
:105A70000022029B1A701CB05DF804EB03B0704763
:105A8000140000200802FFFF0EB44FF4017230B57D
:105A90009CB01FAC54F8045BADF814200290069043
:105AA000FAF756FB0B4B03900B9300230F931493C1
:105AB0004FF6FF7307900848ADF816302A46234684
:105AC00002A90068019403F065F81CB0BDE83040FD
:105AD00003B07047FF5A00081400002010B50C46B0
